{
  "contractName": "Marketplace",
  "abi": [
    {
      "inputs": [],
      "stateMutability": "nonpayable",
      "type": "constructor"
    },
    {
      "anonymous": false,
      "inputs": [
        {
          "indexed": true,
          "internalType": "address",
          "name": "previousOwner",
          "type": "address"
        },
        {
          "indexed": true,
          "internalType": "address",
          "name": "newOwner",
          "type": "address"
        }
      ],
      "name": "OwnershipTransferred",
      "type": "event"
    },
    {
      "anonymous": false,
      "inputs": [
        {
          "indexed": true,
          "internalType": "address",
          "name": "_address",
          "type": "address"
        }
      ],
      "name": "logAdminRemoved",
      "type": "event"
    },
    {
      "anonymous": false,
      "inputs": [
        {
          "indexed": true,
          "internalType": "address",
          "name": "_address",
          "type": "address"
        }
      ],
      "name": "logNewAdmin",
      "type": "event"
    },
    {
      "anonymous": false,
      "inputs": [
        {
          "indexed": true,
          "internalType": "uint256",
          "name": "id",
          "type": "uint256"
        },
        {
          "indexed": true,
          "internalType": "uint256",
          "name": "storeId",
          "type": "uint256"
        }
      ],
      "name": "logNewProduct",
      "type": "event"
    },
    {
      "anonymous": false,
      "inputs": [
        {
          "indexed": true,
          "internalType": "uint256",
          "name": "id",
          "type": "uint256"
        },
        {
          "indexed": true,
          "internalType": "address",
          "name": "_owner",
          "type": "address"
        }
      ],
      "name": "logNewStoreFront",
      "type": "event"
    },
    {
      "anonymous": false,
      "inputs": [
        {
          "indexed": true,
          "internalType": "address",
          "name": "_address",
          "type": "address"
        }
      ],
      "name": "logNewStoreOwner",
      "type": "event"
    },
    {
      "anonymous": false,
      "inputs": [
        {
          "indexed": true,
          "internalType": "string",
          "name": "name",
          "type": "string"
        },
        {
          "indexed": true,
          "internalType": "uint256",
          "name": "quantity",
          "type": "uint256"
        }
      ],
      "name": "logProductRemoved",
      "type": "event"
    },
    {
      "anonymous": false,
      "inputs": [
        {
          "indexed": true,
          "internalType": "string",
          "name": "name",
          "type": "string"
        },
        {
          "indexed": true,
          "internalType": "uint256",
          "name": "quantity",
          "type": "uint256"
        }
      ],
      "name": "logProductSold",
      "type": "event"
    },
    {
      "inputs": [
        {
          "internalType": "uint256",
          "name": "",
          "type": "uint256"
        }
      ],
      "name": "Products",
      "outputs": [
        {
          "internalType": "string",
          "name": "name",
          "type": "string"
        },
        {
          "internalType": "uint256",
          "name": "id",
          "type": "uint256"
        },
        {
          "internalType": "uint256",
          "name": "storeId",
          "type": "uint256"
        },
        {
          "internalType": "uint256",
          "name": "price",
          "type": "uint256"
        },
        {
          "internalType": "uint256",
          "name": "quantity",
          "type": "uint256"
        }
      ],
      "stateMutability": "view",
      "type": "function",
      "constant": true
    },
    {
      "inputs": [
        {
          "internalType": "address",
          "name": "",
          "type": "address"
        }
      ],
      "name": "admin",
      "outputs": [
        {
          "internalType": "bool",
          "name": "",
          "type": "bool"
        }
      ],
      "stateMutability": "view",
      "type": "function",
      "constant": true
    },
    {
      "inputs": [],
      "name": "owner",
      "outputs": [
        {
          "internalType": "address",
          "name": "",
          "type": "address"
        }
      ],
      "stateMutability": "view",
      "type": "function",
      "constant": true
    },
    {
      "inputs": [],
      "name": "productCount",
      "outputs": [
        {
          "internalType": "uint256",
          "name": "",
          "type": "uint256"
        }
      ],
      "stateMutability": "view",
      "type": "function",
      "constant": true
    },
    {
      "inputs": [],
      "name": "renounceOwnership",
      "outputs": [],
      "stateMutability": "nonpayable",
      "type": "function"
    },
    {
      "inputs": [],
      "name": "storeCount",
      "outputs": [
        {
          "internalType": "uint256",
          "name": "",
          "type": "uint256"
        }
      ],
      "stateMutability": "view",
      "type": "function",
      "constant": true
    },
    {
      "inputs": [
        {
          "internalType": "uint256",
          "name": "",
          "type": "uint256"
        }
      ],
      "name": "storeFronts",
      "outputs": [
        {
          "internalType": "uint256",
          "name": "id",
          "type": "uint256"
        },
        {
          "internalType": "string",
          "name": "name",
          "type": "string"
        },
        {
          "internalType": "address payable",
          "name": "owner",
          "type": "address"
        },
        {
          "internalType": "uint256",
          "name": "balance",
          "type": "uint256"
        }
      ],
      "stateMutability": "view",
      "type": "function",
      "constant": true
    },
    {
      "inputs": [
        {
          "internalType": "address",
          "name": "",
          "type": "address"
        }
      ],
      "name": "storeOwner",
      "outputs": [
        {
          "internalType": "bool",
          "name": "",
          "type": "bool"
        }
      ],
      "stateMutability": "view",
      "type": "function",
      "constant": true
    },
    {
      "inputs": [
        {
          "internalType": "address",
          "name": "newOwner",
          "type": "address"
        }
      ],
      "name": "transferOwnership",
      "outputs": [],
      "stateMutability": "nonpayable",
      "type": "function"
    },
    {
      "inputs": [
        {
          "internalType": "address",
          "name": "_admin",
          "type": "address"
        }
      ],
      "name": "addAdmin",
      "outputs": [],
      "stateMutability": "nonpayable",
      "type": "function"
    },
    {
      "inputs": [
        {
          "internalType": "address",
          "name": "_admin",
          "type": "address"
        }
      ],
      "name": "removeAdmin",
      "outputs": [],
      "stateMutability": "nonpayable",
      "type": "function"
    },
    {
      "inputs": [],
      "name": "toggleStopped",
      "outputs": [],
      "stateMutability": "nonpayable",
      "type": "function"
    },
    {
      "inputs": [
        {
          "internalType": "address",
          "name": "_address",
          "type": "address"
        }
      ],
      "name": "addStoreOwner",
      "outputs": [],
      "stateMutability": "nonpayable",
      "type": "function"
    },
    {
      "inputs": [
        {
          "internalType": "string",
          "name": "_name",
          "type": "string"
        }
      ],
      "name": "addStoreFront",
      "outputs": [],
      "stateMutability": "nonpayable",
      "type": "function"
    },
    {
      "inputs": [
        {
          "internalType": "uint256",
          "name": "_id",
          "type": "uint256"
        },
        {
          "internalType": "uint256",
          "name": "_amount",
          "type": "uint256"
        }
      ],
      "name": "withdrawFunds",
      "outputs": [],
      "stateMutability": "nonpayable",
      "type": "function"
    },
    {
      "inputs": [
        {
          "internalType": "string",
          "name": "_name",
          "type": "string"
        },
        {
          "internalType": "uint256",
          "name": "_storeId",
          "type": "uint256"
        },
        {
          "internalType": "uint256",
          "name": "_quantity",
          "type": "uint256"
        },
        {
          "internalType": "uint256",
          "name": "_price",
          "type": "uint256"
        }
      ],
      "name": "addProduct",
      "outputs": [],
      "stateMutability": "nonpayable",
      "type": "function"
    },
    {
      "inputs": [
        {
          "internalType": "uint256",
          "name": "_productId",
          "type": "uint256"
        }
      ],
      "name": "removeProduct",
      "outputs": [],
      "stateMutability": "nonpayable",
      "type": "function"
    },
    {
      "inputs": [
        {
          "internalType": "uint256",
          "name": "_productId",
          "type": "uint256"
        },
        {
          "internalType": "uint256",
          "name": "_newprice",
          "type": "uint256"
        }
      ],
      "name": "changePrice",
      "outputs": [],
      "stateMutability": "nonpayable",
      "type": "function"
    },
    {
      "inputs": [
        {
          "internalType": "uint256",
          "name": "_productId",
          "type": "uint256"
        },
        {
          "internalType": "uint256",
          "name": "_quantity",
          "type": "uint256"
        }
      ],
      "name": "buyProduct",
      "outputs": [],
      "stateMutability": "payable",
      "type": "function",
      "payable": true
    },
    {
      "inputs": [
        {
          "internalType": "uint256",
          "name": "_storeId",
          "type": "uint256"
        }
      ],
      "name": "returnAllProductsByAStore",
      "outputs": [
        {
          "internalType": "uint256[]",
          "name": "",
          "type": "uint256[]"
        }
      ],
      "stateMutability": "view",
      "type": "function",
      "constant": true
    },
    {
      "inputs": [
        {
          "internalType": "address",
          "name": "_owner",
          "type": "address"
        }
      ],
      "name": "returnAllStoreFrontsByUser",
      "outputs": [
        {
          "internalType": "uint256[]",
          "name": "",
          "type": "uint256[]"
        }
      ],
      "stateMutability": "view",
      "type": "function",
      "constant": true
    },
    {
      "inputs": [],
      "name": "kill",
      "outputs": [],
      "stateMutability": "nonpayable",
      "type": "function"
    }
  ],
  "bytecode": "0x608060405234801561001057600080fd5b50600061002161015f60201b60201c565b9050806000806101000a81548173ffffffffffffffffffffffffffffffffffffffff021916908373ffffffffffffffffffffffffffffffffffffffff1602179055508073ffffffffffffffffffffffffffffffffffffffff16600073ffffffffffffffffffffffffffffffffffffffff167f8be0079c531659141344cd1fd0a4f28419497f9722a3daafe3b4186f6b6457e060405160405180910390a3506001600360003373ffffffffffffffffffffffffffffffffffffffff1673ffffffffffffffffffffffffffffffffffffffff16815260200190815260200160002060006101000a81548160ff0219169083151502179055503373ffffffffffffffffffffffffffffffffffffffff167fe75007b0e58ceb74606cf2f7bb5de92b53b04e4ded24961495cea5dffe2e352c60405160405180910390a2610167565b600033905090565b6127a6806101766000396000f3fe6080604052600436106101355760003560e01c80638da5cb5b116100ab578063dba3f6aa1161006f578063dba3f6aa1461079a578063dfa641671461086a578063e0f6ef8714610910578063e52531051461093b578063f2fde38b14610980578063f3c6c9f2146109d157610135565b80638da5cb5b146105ba5780639adeb5f114610611578063a1ae105214610662578063a1b141d41461072a578063b3de019c1461075557610135565b8063498488b5116100fd578063498488b5146103e657806353b62866146104765780635ee95cae146104ae57806363a846f8146104e95780637048027514610552578063715018a6146105a357610135565b8063094455c41461013a5780631785f53c146102205780633191d4011461027157806341555acd1461036657806341c0e1b5146103cf575b600080fd5b34801561014657600080fd5b5061021e6004803603608081101561015d57600080fd5b810190808035906020019064010000000081111561017a57600080fd5b82018360208201111561018c57600080fd5b803590602001918460018302840111640100000000831117156101ae57600080fd5b91908080601f016020809104026020016040519081016040528093929190818152602001838380828437600081840152601f19601f8201169050808301925050505050505091929192908035906020019092919080359060200190929190803590602001909291905050506109e8565b005b34801561022c57600080fd5b5061026f6004803603602081101561024357600080fd5b81019080803573ffffffffffffffffffffffffffffffffffffffff169060200190929190505050610b92565b005b34801561027d57600080fd5b506102aa6004803603602081101561029457600080fd5b8101908080359060200190929190505050610d13565b60405180858152602001806020018473ffffffffffffffffffffffffffffffffffffffff1673ffffffffffffffffffffffffffffffffffffffff168152602001838152602001828103825285818151815260200191508051906020019080838360005b8381101561032857808201518184015260208101905061030d565b50505050905090810190601f1680156103555780820380516001836020036101000a031916815260200191505b509550505050505060405180910390f35b34801561037257600080fd5b506103b56004803603602081101561038957600080fd5b81019080803573ffffffffffffffffffffffffffffffffffffffff169060200190929190505050610dfb565b604051808215151515815260200191505060405180910390f35b3480156103db57600080fd5b506103e4610e1b565b005b3480156103f257600080fd5b5061041f6004803603602081101561040957600080fd5b8101908080359060200190929190505050610f1d565b6040518080602001828103825283818151815260200191508051906020019060200280838360005b83811015610462578082015181840152602081019050610447565b505050509050019250505060405180910390f35b6104ac6004803603604081101561048c57600080fd5b810190808035906020019092919080359060200190929190505050610f88565b005b3480156104ba57600080fd5b506104e7600480360360208110156104d157600080fd5b8101908080359060200190929190505050611174565b005b3480156104f557600080fd5b506105386004803603602081101561050c57600080fd5b81019080803573ffffffffffffffffffffffffffffffffffffffff1690602001909291905050506114ad565b604051808215151515815260200191505060405180910390f35b34801561055e57600080fd5b506105a16004803603602081101561057557600080fd5b81019080803573ffffffffffffffffffffffffffffffffffffffff1690602001909291905050506114cd565b005b3480156105af57600080fd5b506105b861164e565b005b3480156105c657600080fd5b506105cf6117d6565b604051808273ffffffffffffffffffffffffffffffffffffffff1673ffffffffffffffffffffffffffffffffffffffff16815260200191505060405180910390f35b34801561061d57600080fd5b506106606004803603602081101561063457600080fd5b81019080803573ffffffffffffffffffffffffffffffffffffffff1690602001909291905050506117ff565b005b34801561066e57600080fd5b506107286004803603602081101561068557600080fd5b81019080803590602001906401000000008111156106a257600080fd5b8201836020820111156106b457600080fd5b803590602001918460018302840111640100000000831117156106d657600080fd5b91908080601f016020809104026020016040519081016040528093929190818152602001838380828437600081840152601f19601f820116905080830192505050505050509192919290505050611971565b005b34801561073657600080fd5b5061073f611b75565b6040518082815260200191505060405180910390f35b34801561076157600080fd5b506107986004803603604081101561077857600080fd5b810190808035906020019092919080359060200190929190505050611b7b565b005b3480156107a657600080fd5b506107d3600480360360208110156107bd57600080fd5b8101908080359060200190929190505050611c3e565b6040518080602001868152602001858152602001848152602001838152602001828103825287818151815260200191508051906020019080838360005b8381101561082b578082015181840152602081019050610810565b50505050905090810190601f1680156108585780820380516001836020036101000a031916815260200191505b50965050505050505060405180910390f35b34801561087657600080fd5b506108b96004803603602081101561088d57600080fd5b81019080803573ffffffffffffffffffffffffffffffffffffffff169060200190929190505050611d0c565b6040518080602001828103825283818151815260200191508051906020019060200280838360005b838110156108fc5780820151818401526020810190506108e1565b505050509050019250505060405180910390f35b34801561091c57600080fd5b50610925611da3565b6040518082815260200191505060405180910390f35b34801561094757600080fd5b5061097e6004803603604081101561095e57600080fd5b810190808035906020019092919080359060200190929190505050611da9565b005b34801561098c57600080fd5b506109cf600480360360208110156109a357600080fd5b81019080803573ffffffffffffffffffffffffffffffffffffffff169060200190929190505050611ee8565b005b3480156109dd57600080fd5b506109e66120f5565b005b600060149054906101000a900460ff1615610a0257600080fd5b3373ffffffffffffffffffffffffffffffffffffffff166005600085815260200190815260200160002060020160009054906101000a900473ffffffffffffffffffffffffffffffffffffffff1673ffffffffffffffffffffffffffffffffffffffff16148015610a735750600082115b8015610a7f5750600081115b610a8857600080fd5b6040518060a001604052808581526020016002548152602001848152602001828152602001838152506008600060025481526020019081526020016000206000820151816000019080519060200190610ae2929190612582565b5060208201518160010155604082015181600201556060820151816003015560808201518160040155905050600760008481526020019081526020016000206002549080600181540180825580915050600190039060005260206000200160009091909190915055826002547f3d8898b9428db0b7fd360efece448d9dc56df09688f3238a9fa3b64b1f73fca060405160405180910390a360026000815480929190600101919050555050505050565b610b9a6121ea565b73ffffffffffffffffffffffffffffffffffffffff166000809054906101000a900473ffffffffffffffffffffffffffffffffffffffff1673ffffffffffffffffffffffffffffffffffffffff1614610c5b576040517f08c379a00000000000000000000000000000000000000000000000000000000081526004018080602001828103825260208152602001807f4f776e61626c653a2063616c6c6572206973206e6f7420746865206f776e657281525060200191505060405180910390fd5b600060149054906101000a900460ff1615610c7557600080fd5b6000600360008373ffffffffffffffffffffffffffffffffffffffff1673ffffffffffffffffffffffffffffffffffffffff16815260200190815260200160002060006101000a81548160ff0219169083151502179055508073ffffffffffffffffffffffffffffffffffffffff167fee527a62c73fecd4a43b92c114b259ba90ec8fb0cb594b9e2fc84a1beed5987d60405160405180910390a250565b6005602052806000526040600020600091509050806000015490806001018054600181600116156101000203166002900480601f016020809104026020016040519081016040528092919081815260200182805460018160011615610100020316600290048015610dc55780601f10610d9a57610100808354040283529160200191610dc5565b820191906000526020600020905b815481529060010190602001808311610da857829003601f168201915b5050505050908060020160009054906101000a900473ffffffffffffffffffffffffffffffffffffffff16908060030154905084565b60046020528060005260406000206000915054906101000a900460ff1681565b610e236121ea565b73ffffffffffffffffffffffffffffffffffffffff166000809054906101000a900473ffffffffffffffffffffffffffffffffffffffff1673ffffffffffffffffffffffffffffffffffffffff1614610ee4576040517f08c379a00000000000000000000000000000000000000000000000000000000081526004018080602001828103825260208152602001807f4f776e61626c653a2063616c6c6572206973206e6f7420746865206f776e657281525060200191505060405180910390fd5b600060149054906101000a900460ff16610efd57600080fd5b610f056117d6565b73ffffffffffffffffffffffffffffffffffffffff16ff5b606060076000838152602001908152602001600020805480602002602001604051908101604052809291908181526020018280548015610f7c57602002820191906000526020600020905b815481526020019060010190808311610f68575b50505050509050919050565b600060149054906101000a900460ff1615610fa257600080fd5b60086000838152602001908152602001600020600401548111158015610ff05750610fec8160086000858152602001908152602001600020600301546121f290919063ffffffff16565b3410155b610ff957600080fd5b61102281600860008581526020019081526020016000206004015461227890919063ffffffff16565b60086000848152602001908152602001600020600401819055506000600860008481526020019081526020016000206002015490506110803460056000848152602001908152602001600020600301546122c290919063ffffffff16565b60056000838152602001908152602001600020600301819055508160086000858152602001908152602001600020600001604051808280546001816001161561010002031660029004801561110c5780601f106110ea57610100808354040283529182019161110c565b820191906000526020600020905b8154815290600101906020018083116110f8575b505091505060405180910390207f82bbca182fcf4c622b4b08fd3846d2572dab69f984218c3284bd36963a37a2b060405160405180910390a360006008600085815260200190815260200160002060040154141561116f5761116e838261234a565b5b505050565b600060149054906101000a900460ff161561118e57600080fd5b611196612602565b600860008381526020019081526020016000206040518060a0016040529081600082018054600181600116156101000203166002900480601f01602080910402602001604051908101604052809291908181526020018280546001816001161561010002031660029004801561124d5780601f106112225761010080835404028352916020019161124d565b820191906000526020600020905b81548152906001019060200180831161123057829003601f168201915b505050505081526020016001820154815260200160028201548152602001600382015481526020016004820154815250509050611288612631565b600560008360400151815260200190815260200160002060405180608001604052908160008201548152602001600182018054600181600116156101000203166002900480601f01602080910402602001604051908101604052809291908181526020018280546001816001161561010002031660029004801561134d5780601f106113225761010080835404028352916020019161134d565b820191906000526020600020905b81548152906001019060200180831161133057829003601f168201915b505050505081526020016002820160009054906101000a900473ffffffffffffffffffffffffffffffffffffffff1673ffffffffffffffffffffffffffffffffffffffff1673ffffffffffffffffffffffffffffffffffffffff1681526020016003820154815250509050806040015173ffffffffffffffffffffffffffffffffffffffff163373ffffffffffffffffffffffffffffffffffffffff161480156113fb575060008260800151115b61140457600080fd5b816080015182600001516040518082805190602001908083835b60208310611441578051825260208201915060208101905060208303925061141e565b6001836020036101000a03801982511681845116808217855250505050505090500191505060405180910390207fa81f9d58ce3d8b9eb1698c4817955796b4123fbf9c3c691b47223ef88ed3803560405160405180910390a36114a883826000015161234a565b505050565b60036020528060005260406000206000915054906101000a900460ff1681565b6114d56121ea565b73ffffffffffffffffffffffffffffffffffffffff166000809054906101000a900473ffffffffffffffffffffffffffffffffffffffff1673ffffffffffffffffffffffffffffffffffffffff1614611596576040517f08c379a00000000000000000000000000000000000000000000000000000000081526004018080602001828103825260208152602001807f4f776e61626c653a2063616c6c6572206973206e6f7420746865206f776e657281525060200191505060405180910390fd5b600060149054906101000a900460ff16156115b057600080fd5b6001600360008373ffffffffffffffffffffffffffffffffffffffff1673ffffffffffffffffffffffffffffffffffffffff16815260200190815260200160002060006101000a81548160ff0219169083151502179055508073ffffffffffffffffffffffffffffffffffffffff167fe75007b0e58ceb74606cf2f7bb5de92b53b04e4ded24961495cea5dffe2e352c60405160405180910390a250565b6116566121ea565b73ffffffffffffffffffffffffffffffffffffffff166000809054906101000a900473ffffffffffffffffffffffffffffffffffffffff1673ffffffffffffffffffffffffffffffffffffffff1614611717576040517f08c379a00000000000000000000000000000000000000000000000000000000081526004018080602001828103825260208152602001807f4f776e61626c653a2063616c6c6572206973206e6f7420746865206f776e657281525060200191505060405180910390fd5b600073ffffffffffffffffffffffffffffffffffffffff166000809054906101000a900473ffffffffffffffffffffffffffffffffffffffff1673ffffffffffffffffffffffffffffffffffffffff167f8be0079c531659141344cd1fd0a4f28419497f9722a3daafe3b4186f6b6457e060405160405180910390a360008060006101000a81548173ffffffffffffffffffffffffffffffffffffffff021916908373ffffffffffffffffffffffffffffffffffffffff160217905550565b60008060009054906101000a900473ffffffffffffffffffffffffffffffffffffffff16905090565b60011515600360003373ffffffffffffffffffffffffffffffffffffffff1673ffffffffffffffffffffffffffffffffffffffff16815260200190815260200160002060009054906101000a900460ff1615151461185c57600080fd5b600060149054906101000a900460ff161561187657600080fd5b60001515600360008373ffffffffffffffffffffffffffffffffffffffff1673ffffffffffffffffffffffffffffffffffffffff16815260200190815260200160002060009054906101000a900460ff161515146118d357600080fd5b6001600460008373ffffffffffffffffffffffffffffffffffffffff1673ffffffffffffffffffffffffffffffffffffffff16815260200190815260200160002060006101000a81548160ff0219169083151502179055508073ffffffffffffffffffffffffffffffffffffffff167f0a582b82e1deb4a5bbd58be7955a71c027c2c0710b0cfcb02501121fc956fc5860405160405180910390a250565b60011515600460003373ffffffffffffffffffffffffffffffffffffffff1673ffffffffffffffffffffffffffffffffffffffff16815260200190815260200160002060009054906101000a900460ff161515146119ce57600080fd5b600060149054906101000a900460ff16156119e857600080fd5b604051806080016040528060015481526020018281526020013373ffffffffffffffffffffffffffffffffffffffff1681526020016000815250600560006001548152602001908152602001600020600082015181600001556020820151816001019080519060200190611a5d929190612582565b5060408201518160020160006101000a81548173ffffffffffffffffffffffffffffffffffffffff021916908373ffffffffffffffffffffffffffffffffffffffff16021790555060608201518160030155905050600660003373ffffffffffffffffffffffffffffffffffffffff1673ffffffffffffffffffffffffffffffffffffffff16815260200190815260200160002060015490806001815401808255809150506001900390600052602060002001600090919091909150553373ffffffffffffffffffffffffffffffffffffffff166001547f0f5f5c83e313ebf0d4c44d7405ef545aba0dd29cc2595f67a58abbe194d4fbff60405160405180910390a360016000815480929190600101919050555050565b60015481565b600060149054906101000a900460ff1615611b9557600080fd5b6000600860008481526020019081526020016000206002015490503373ffffffffffffffffffffffffffffffffffffffff166005600083815260200190815260200160002060020160009054906101000a900473ffffffffffffffffffffffffffffffffffffffff1673ffffffffffffffffffffffffffffffffffffffff1614611c1e57600080fd5b816008600085815260200190815260200160002060030181905550505050565b6008602052806000526040600020600091509050806000018054600181600116156101000203166002900480601f016020809104026020016040519081016040528092919081815260200182805460018160011615610100020316600290048015611cea5780601f10611cbf57610100808354040283529160200191611cea565b820191906000526020600020905b815481529060010190602001808311611ccd57829003601f168201915b5050505050908060010154908060020154908060030154908060040154905085565b6060600660008373ffffffffffffffffffffffffffffffffffffffff1673ffffffffffffffffffffffffffffffffffffffff168152602001908152602001600020805480602002602001604051908101604052809291908181526020018280548015611d9757602002820191906000526020600020905b815481526020019060010190808311611d83575b50505050509050919050565b60025481565b60006005600084815260200190815260200160002090508060020160009054906101000a900473ffffffffffffffffffffffffffffffffffffffff1673ffffffffffffffffffffffffffffffffffffffff163373ffffffffffffffffffffffffffffffffffffffff16148015611e23575081816003015410155b611e2c57600080fd5b611e4382826003015461227890919063ffffffff16565b816003018190555060008160020160009054906101000a900473ffffffffffffffffffffffffffffffffffffffff1673ffffffffffffffffffffffffffffffffffffffff168360405180600001905060006040518083038185875af1925050503d8060008114611ecf576040519150601f19603f3d011682016040523d82523d6000602084013e611ed4565b606091505b5050905080611ee257600080fd5b50505050565b611ef06121ea565b73ffffffffffffffffffffffffffffffffffffffff166000809054906101000a900473ffffffffffffffffffffffffffffffffffffffff1673ffffffffffffffffffffffffffffffffffffffff1614611fb1576040517f08c379a00000000000000000000000000000000000000000000000000000000081526004018080602001828103825260208152602001807f4f776e61626c653a2063616c6c6572206973206e6f7420746865206f776e657281525060200191505060405180910390fd5b600073ffffffffffffffffffffffffffffffffffffffff168173ffffffffffffffffffffffffffffffffffffffff161415612037576040517f08c379a000000000000000000000000000000000000000000000000000000000815260040180806020018281038252602681526020018061272a6026913960400191505060405180910390fd5b8073ffffffffffffffffffffffffffffffffffffffff166000809054906101000a900473ffffffffffffffffffffffffffffffffffffffff1673ffffffffffffffffffffffffffffffffffffffff167f8be0079c531659141344cd1fd0a4f28419497f9722a3daafe3b4186f6b6457e060405160405180910390a3806000806101000a81548173ffffffffffffffffffffffffffffffffffffffff021916908373ffffffffffffffffffffffffffffffffffffffff16021790555050565b6120fd6121ea565b73ffffffffffffffffffffffffffffffffffffffff166000809054906101000a900473ffffffffffffffffffffffffffffffffffffffff1673ffffffffffffffffffffffffffffffffffffffff16146121be576040517f08c379a00000000000000000000000000000000000000000000000000000000081526004018080602001828103825260208152602001807f4f776e61626c653a2063616c6c6572206973206e6f7420746865206f776e657281525060200191505060405180910390fd5b600060149054906101000a900460ff1615600060146101000a81548160ff021916908315150217905550565b600033905090565b6000808314156122055760009050612272565b600082840290508284828161221657fe5b041461226d576040517f08c379a00000000000000000000000000000000000000000000000000000000081526004018080602001828103825260218152602001806127506021913960400191505060405180910390fd5b809150505b92915050565b60006122ba83836040518060400160405280601e81526020017f536166654d6174683a207375627472616374696f6e206f766572666c6f7700008152506124c2565b905092915050565b600080828401905083811015612340576040517f08c379a000000000000000000000000000000000000000000000000000000000815260040180806020018281038252601b8152602001807f536166654d6174683a206164646974696f6e206f766572666c6f77000000000081525060200191505060405180910390fd5b8091505092915050565b600860008381526020019081526020016000206000808201600061236e919061266f565b600182016000905560028201600090556003820160009055600482016000905550506060600760008381526020019081526020016000208054806020026020016040519081016040528092919081815260200182805480156123ef57602002820191906000526020600020905b8154815260200190600101908083116123db575b5050505050905060008090505b8151811015612462578382828151811061241257fe5b60200260200101511415612455578160018351038151811061243057fe5b602002602001015182828151811061244457fe5b602002602001018181525050612462565b80806001019150506123fc565b508060076000848152602001908152602001600020908051906020019061248a9291906126b7565b50600760008381526020019081526020016000208054806124a757fe5b60019003818190600052602060002001600090559055505050565b600083831115829061256f576040517f08c379a00000000000000000000000000000000000000000000000000000000081526004018080602001828103825283818151815260200191508051906020019080838360005b83811015612534578082015181840152602081019050612519565b50505050905090810190601f1680156125615780820380516001836020036101000a031916815260200191505b509250505060405180910390fd5b5060008385039050809150509392505050565b828054600181600116156101000203166002900490600052602060002090601f016020900481019282601f106125c357805160ff19168380011785556125f1565b828001600101855582156125f1579182015b828111156125f05782518255916020019190600101906125d5565b5b5090506125fe9190612704565b5090565b6040518060a0016040528060608152602001600081526020016000815260200160008152602001600081525090565b60405180608001604052806000815260200160608152602001600073ffffffffffffffffffffffffffffffffffffffff168152602001600081525090565b50805460018160011615610100020316600290046000825580601f1061269557506126b4565b601f0160209004906000526020600020908101906126b39190612704565b5b50565b8280548282559060005260206000209081019282156126f3579160200282015b828111156126f25782518255916020019190600101906126d7565b5b5090506127009190612704565b5090565b61272691905b8082111561272257600081600090555060010161270a565b5090565b9056fe4f776e61626c653a206e6577206f776e657220697320746865207a65726f2061646472657373536166654d6174683a206d756c7469706c69636174696f6e206f766572666c6f77a2646970667358221220f8320014335add3612859844b59f5b054a2e4d2af347ec01837824b53eca32a264736f6c63430006000033",
  "source": "// SPDX-License-Identifier: MIT\npragma solidity ^0.6.0;\nimport '@openzeppelin/contracts/access/Ownable.sol';\nimport '@openzeppelin/contracts/math/SafeMath.sol';\n\n/// @title A blockchain based market where goods can be bought and sold\n/// @author Olugbenga Ayoola\n\ncontract Marketplace is Ownable {\n\n  using SafeMath for uint256;\n\n  bool private stopped;\n\n  ///@notice holds the total number of stores created.\n  /// @return returns the number of stores.\n  uint public storeCount;\n  ///@notice holds the total number of products created\n  /// @return returns the number of products\n  uint public productCount;\n  /// @return returns true if passed an admin address\n  mapping(address=>bool)public admin;\n  /// @return returns true if passed a store owner address\n  mapping(address=>bool)public storeOwner;\n\n  ///@notice maps a an integer to a storeFront.\n  /// @return returns a storeFront struct.\n  mapping(uint=>storeFront)public storeFronts;\n\n  ///@notice holds the ids of all storeFronts belonging to a particular address.\n  mapping(address=>uint[])private allStoreFrontsByUser;\n\n  ///@notice holds the ids of all products belonging to a particular store.\n  mapping(uint => uint[])private allProductsByAStore;\n\n  ///@notice maps a an integer to a product.\n  /// @return returns a Product struct.\n  mapping(uint => Product)public Products;\n\n  struct storeFront{\n    uint id;\n    string name;\n    address payable owner;\n    uint balance;\n  }\n  \n  struct Product {\n    string name;\n    uint id;\n    uint storeId;\n    uint price;\n    uint quantity;\n  }\n\n  ///@notice emits event when a new admin is added.\n  /// @param _address The address of the new admin. \n  event logNewAdmin(address indexed _address);\n\n  ///@notice emits event when an admin is removed.\n  /// @param _address The address of the deleted admin. \n  event logAdminRemoved(address indexed _address);\n\n  ///@notice emits event when a new store owner is added by an admin.\n  /// @param _address The address of the new store owner. \n  event logNewStoreOwner(address indexed _address);\n\n  ///@notice emits event when a new storeFront is created.\n  /// @param id The id of the new store.\n  /// @param _owner The address of the storeFront's owner.  \n  event logNewStoreFront(uint indexed id,address indexed _owner);\n\n  ///@notice emits event when a new product is added to a store.\n  /// @param id The id of the new product.\n  /// @param storeId The id of the product's store. \n  event logNewProduct(uint indexed id,uint indexed storeId);\n\n  ///@notice emits event when a product is removed from a store.\n  /// @param name The name of the removed product.\n  /// @param quantity The quantity of the product deleted.\n  event logProductRemoved(string  indexed name,uint indexed quantity);\n\n  ///@notice emits event when a product is bought.\n  /// @param name The name of the bought product.\n  /// @param quantity The quantity of the product that was bought.\n  event logProductSold(string indexed name,uint indexed quantity);\n\n  ///@notice sets the address that deployed the contract as an admin.\n  constructor() public {\n    admin[msg.sender]=true;\n    emit logNewAdmin(msg.sender);\n  }\n\n  modifier onlyAdmin(){\n    require(admin[msg.sender]==true);\n    _;\n  }\n\n  modifier onlyStoreOwner(){\n    require(storeOwner[msg.sender]==true);\n    _;\n  }\n\n  modifier stopInEmergency(){\n    require(!stopped);\n    _;\n  }\n\n  modifier onlyInEmergency(){\n    require(stopped);\n    _;\n  }\n  /// @notice function to add a new admin\n  /// @dev maps the new address to true using mapping admin\n  /// @param _admin The address to be added as an admin\n  function addAdmin(address _admin)external onlyOwner stopInEmergency{\n    admin[_admin] = true;\n    emit logNewAdmin(_admin);\n  }\n  \n   /// @notice function to remove an admin\n  /// @dev maps the new address to false using mapping admin\n  /// @param _admin The address of the admin to be removed\n  function removeAdmin(address _admin)external onlyOwner stopInEmergency{\n    admin[_admin] = false;\n    emit logAdminRemoved(_admin);\n  }\n   /// @notice Stops majority of the contract function in case of an emergency.Can only be activated by the owner.\n  function toggleStopped() public onlyOwner{\n    stopped = !stopped;\n  }\n\n   /// @notice allows an admin to add a new store owner.\n  /// @dev maps the new address to true using mapping storeOwner.\n  /// @param _address The address of the store owner to be added.\n  function addStoreOwner(address _address)public onlyAdmin stopInEmergency{\n    require(admin[_address]==false);\n    storeOwner[_address] = true;\n    emit logNewStoreOwner(_address);\n  }\n\n  /// @notice allows a store owner to add a new store front.\n  /// @dev creates a new storeFront struct.\n  /// @param _name The name of the new store to be created.\n  function addStoreFront(string memory _name)public onlyStoreOwner stopInEmergency{\n    storeFronts[storeCount] = storeFront({id:storeCount, name:_name, owner:msg.sender, balance:0});\n    allStoreFrontsByUser[msg.sender].push(storeCount);\n    emit logNewStoreFront(storeCount,msg.sender);\n    storeCount++;\n  } \n  /// @notice allows a store owner to withdraw funds from the store's balance.\n  /// @param _id The id of the store to withdraw from.\n  /// @param _amount The amount to withdraw from the store's balance.\n  function withdrawFunds(uint _id, uint _amount) public {\n    storeFront storage store = storeFronts[_id];\n    require(msg.sender==store.owner && store.balance >= _amount);\n    store.balance = store.balance.sub(_amount);\n    (bool success,) = store.owner.call.value(_amount)(\"\");\n    require(success);\n  }\n\n   /// @notice allows a store owner to add a new product to the store.\n  /// @param _name the name of the new product to be added.\n  /// @param _storeId The id of the store to which the product is being added.\n  /// @param _quantity The quantity of the new product.\n  /// @param _price The amount the product is going to be sold.\n  function addProduct(string memory _name, uint _storeId,uint _quantity, uint _price) public stopInEmergency {\n    require(storeFronts[_storeId].owner == msg.sender && _quantity > 0 && _price > 0);\n    Products[productCount] = Product({name:_name, id:productCount, storeId:_storeId,\n                                      price:_price, quantity:_quantity});\n    allProductsByAStore[_storeId].push(productCount);\n    emit logNewProduct(productCount, _storeId);\n    productCount++;\n  }\n\n  /// @notice allows a store owner to remove a product from the store.\n  /// @param _productId The id of the product to be removed.\n  function removeProduct(uint _productId) external stopInEmergency{\n    Product memory _product = Products[_productId];\n    storeFront memory store = storeFronts[_product.storeId];\n    require(msg.sender==store.owner && _product.quantity > 0);\n    emit logProductRemoved(_product.name,_product.quantity);\n    deleteProduct(_productId,store.id);\n  }\n    \n  function deleteProduct(uint _productId, uint _storeId) private{\n    delete Products[_productId];\n    uint[] memory allProducts = allProductsByAStore[_storeId];\n    for (uint index =0; index < allProducts.length; index++) {\n      if (allProducts[index] == _productId){\n        allProducts[index] = allProducts[allProducts.length - 1];\n        break;\n      }\n    }\n    allProductsByAStore[_storeId] = allProducts;\n    allProductsByAStore[_storeId].pop();\n  }\n\n  /// @notice allows a store owner to change the price of a product.\n  /// @param _productId The id of the product whose price is being changed.\n  /// @param _newprice The new price of the product.\n  function changePrice(uint _productId, uint _newprice) external stopInEmergency {\n    uint _storeId = Products[_productId].storeId;\n    require(storeFronts[_storeId].owner == msg.sender);\n    Products[_productId].price = _newprice;\n  }\n\n  /// @notice allows a shopper to buy product from the store .\n  /// @dev deletes a product once the quantity is 0.\n  /// @param _productId The id of the product that is being bought.\n  /// @param _quantity The quantity of the product the shopper wants to buy.\n\n  function buyProduct(uint _productId,uint _quantity) external payable stopInEmergency{\n     require(_quantity <= Products[_productId].quantity && msg.value >= Products[_productId].price.mul(_quantity));\n     Products[_productId].quantity = Products[_productId].quantity.sub(_quantity);\n     uint _storeId = Products[_productId].storeId;\n     storeFronts[_storeId].balance = storeFronts[_storeId].balance.add(msg.value);\n     emit logProductSold(Products[_productId].name,_quantity);\n     if (Products[_productId].quantity == 0){\n       deleteProduct(_productId,_storeId);\n     }   \n  }  \n/// @return returns an integer array of the product ids.\n/// @param _storeId The id of the store whose products we want to get  \nfunction returnAllProductsByAStore(uint _storeId) public view returns(uint[] memory){\n  return allProductsByAStore[_storeId];\n}\n\n/// @return returns an integer array of the store ids.\n/// @param _owner The address whose storeFronts we want to get\nfunction returnAllStoreFrontsByUser(address _owner) public view returns(uint[] memory){\n  return allStoreFrontsByUser[_owner];\n}\n  /// @notice allows the owner to kill contract\n  /// @dev sends all the ether in the contract to the owner.\n  function kill()public onlyOwner onlyInEmergency{\n    selfdestruct(address(uint160(owner())));\n  } \n}\n",
  "sourcePath": "C:/Users/Mr Ayoola Gbenga/Desktop/Bootcamp/Final Project - Copy/contracts/Marketplace.sol",
  "compiler": {
    "name": "solc",
    "version": "0.6.0+commit.26b70077.Emscripten.clang"
  },
  "schemaVersion": "3.0.22",
  "updatedAt": "2020-12-11T08:03:10.288Z",
  "networkType": "ethereum",
  "devdoc": {
    "author": "Olugbenga Ayoola",
    "methods": {
      "addAdmin(address)": {
        "details": "maps the new address to true using mapping admin",
        "params": {
          "_admin": "The address to be added as an admin"
        }
      },
      "addProduct(string,uint256,uint256,uint256)": {
        "params": {
          "_name": "the name of the new product to be added.",
          "_price": "The amount the product is going to be sold.",
          "_quantity": "The quantity of the new product.",
          "_storeId": "The id of the store to which the product is being added."
        }
      },
      "addStoreFront(string)": {
        "details": "creates a new storeFront struct.",
        "params": {
          "_name": "The name of the new store to be created."
        }
      },
      "addStoreOwner(address)": {
        "details": "maps the new address to true using mapping storeOwner.",
        "params": {
          "_address": "The address of the store owner to be added."
        }
      },
      "buyProduct(uint256,uint256)": {
        "details": "deletes a product once the quantity is 0.",
        "params": {
          "_productId": "The id of the product that is being bought.",
          "_quantity": "The quantity of the product the shopper wants to buy."
        }
      },
      "changePrice(uint256,uint256)": {
        "params": {
          "_newprice": "The new price of the product.",
          "_productId": "The id of the product whose price is being changed."
        }
      },
      "kill()": {
        "details": "sends all the ether in the contract to the owner."
      },
      "owner()": {
        "details": "Returns the address of the current owner."
      },
      "removeAdmin(address)": {
        "details": "maps the new address to false using mapping admin",
        "params": {
          "_admin": "The address of the admin to be removed"
        }
      },
      "removeProduct(uint256)": {
        "params": {
          "_productId": "The id of the product to be removed."
        }
      },
      "renounceOwnership()": {
        "details": "Leaves the contract without owner. It will not be possible to call `onlyOwner` functions anymore. Can only be called by the current owner.     * NOTE: Renouncing ownership will leave the contract without an owner, thereby removing any functionality that is only available to the owner."
      },
      "returnAllProductsByAStore(uint256)": {
        "params": {
          "_storeId": "The id of the store whose products we want to get  "
        },
        "returns": {
          "_0": "returns an integer array of the product ids."
        }
      },
      "returnAllStoreFrontsByUser(address)": {
        "params": {
          "_owner": "The address whose storeFronts we want to get"
        },
        "returns": {
          "_0": "returns an integer array of the store ids."
        }
      },
      "transferOwnership(address)": {
        "details": "Transfers ownership of the contract to a new account (`newOwner`). Can only be called by the current owner."
      },
      "withdrawFunds(uint256,uint256)": {
        "params": {
          "_amount": "The amount to withdraw from the store's balance.",
          "_id": "The id of the store to withdraw from."
        }
      }
    },
    "title": "A blockchain based market where goods can be bought and sold"
  },
  "userdoc": {
    "methods": {
      "addAdmin(address)": {
        "notice": "function to add a new admin"
      },
      "addProduct(string,uint256,uint256,uint256)": {
        "notice": "allows a store owner to add a new product to the store."
      },
      "addStoreFront(string)": {
        "notice": "allows a store owner to add a new store front."
      },
      "addStoreOwner(address)": {
        "notice": "allows an admin to add a new store owner."
      },
      "buyProduct(uint256,uint256)": {
        "notice": "allows a shopper to buy product from the store ."
      },
      "changePrice(uint256,uint256)": {
        "notice": "allows a store owner to change the price of a product."
      },
      "constructor": "sets the address that deployed the contract as an admin.",
      "kill()": {
        "notice": "allows the owner to kill contract"
      },
      "removeAdmin(address)": {
        "notice": "function to remove an admin"
      },
      "removeProduct(uint256)": {
        "notice": "allows a store owner to remove a product from the store."
      },
      "toggleStopped()": {
        "notice": "Stops majority of the contract function in case of an emergency.Can only be activated by the owner."
      },
      "withdrawFunds(uint256,uint256)": {
        "notice": "allows a store owner to withdraw funds from the store's balance."
      }
    }
  }
}